:200000000C943F050C945C050C945C050C9402300C945C050C945C050C945C050C945C0524
:200020000C945C050C945C050C941F120C9440160C94D9280C945C050C945C050C945C0553
:200040000C945C050C945C050C945C050C945C050C945C050C94F8120C945C050C945C05EF
:200060000C945C050C945C050C945C050C945C050C945C050C945C050C945C050C945C0578
:200080000C945C050C945C050C945C050C945C050C945C050C945C050C945C050C945C0558
:2000A0000C945C050C945C050C945C052D00210000000D000B00000023002A0000000F007B
:2000C000330000001E00310000001F00200000001E001F000000210022000000457E3000EC
:2000E000000030022702000027023000000026022F00000010003800000036003700000040
:200100001000360000000D000E0000001D00190000001B0006000000060019000000070001
:200120000900000029003A003B003C003D003E002B0014001A0008001500170000070400C9
:200140001600070009000A00E3001D001B00060019000500E00021522252E100E300A800FD
:20016000140943004200410040003F002800130012000C0018001C00000733000F000E0039
:200180000D000B00E30038003700360010001100E2002A0024522C00E3004A7E00521E00D5
:2001A0001F0020002100220028001E021F02200221022202045201000100260227022D0213
:2001C00003523100457E2F0030002402010021520100010001000100010027002600250066
:2001E0002400230028002E00260025002400250204522A002300220021002D00035237002D
:2002000020001F001E002E0236003700270001002E00010000521E001F002000210022009B
:20022000280029004A004E004B004D0001524C005000510052004F000352E100E000E20064
:20024000E30000072800010001002C00010001000100270026002500240023002800290051
:200260004D004B004E004A0001522A004F005200510050000352E100E000E200E3000007AD
:2002800001000100010001000100010000520000000000000000000000523A003B003C0003
:2002A0003D003E00597C52013900487E497E4400010000000000000000000000010001008E
:2002C0000100010001000100007C00000000000000000000BD0043004200410040003F009C
:2002E000BE00AD00AB00AE00AC004500350F4B7EA900AA00A800000001000100010001003D
:200300000100010000521E001F0020002100220028001E021F0220022102220201520100C3
:200320000100260227022D0203523100457E2F0030002402010023520100010001000100F4
:2003400001002700260025002400230028000100010001000100250201522A0006043500D4
:20036000340023020352260427044D7E4C7E4E7E36003700010022522152010000DA028166
:2003800078D9F1DB20A4A62EAF00A0C0D30000A1C8D30000AED580A81F408D1420000708B0
:2003A0007F0807003E5B4F5B3E003E6B4F6B3E001C3E7C3E1C00183C7E3C18001C577D57F0
:2003C0001C001C5E7F5E1C0000183C180000FFE7C3E7FF00001824180000FFE7DBE7FF0098
:2003E00030483A060E00262979292600407F05050700407F05253F005A3CE73C5A007F3E58
:200400001C1C0800081C1C3E7F0014227F2214005F5F005F5F0006097F017F0000668995A6
:200420006A0060606060600094A2FFA2940008047E04080010207E20100008082A1C080035
:20044000081C2A0808001E10101010000C1E0C1E0C0030383E383000060E3E0E060000000C
:200460000000000000005F000000000700070000147F147F1400242A7F2A1200231308642A
:200480006200364956205000000807030000001C224100000041221C00002A1C7F1C2A009A
:2004A00008083E0808000080703000000808080808000000606000002010080402003E5109
:2004C00049453E0000427F4000007249494946002141494D33001814127F100027454545CE
:2004E00039003C4A49493100412111090700364949493600464949291E000000140000007D
:200500000040340000000008142241001414141414000041221408000201590906003E411B
:200520005D594E007C1211127C007F49494936003E41414122007F4141413E007F494949FD
:2005400041007F09090901003E41415173007F0808087F0000417F4100002040413F010043
:200560007F08142241007F40404040007F021C027F007F0408107F003E4141413E007F09FF
:20058000090906003E4151215E007F091929460026494949320003017F0103003F4040402B
:2005A0003F001F2040201F003F4038403F006314081463000304780403006159494D4300F9
:2005C000007F41414100020408102000004141417F00040201020400404040404000000309
:2005E000070800002054547840007F2844443800384444442800384444287F00385454543E
:20060000180000087E09020018A4A49C78007F080404780000447D4000002040403D0000D8
:200620007F102844000000417F4000007C04780478007C0804047800384444443800FC18F7
:200640002424180018242418FC007C080404080048545454240004043F4424003C4040203F
:200660007C001C2040201C003C4030403C004428102844004C9090907C004464544C440032
:200680000008364100000000770000000041360800000201020402003C2623263C000000F3
:2006A00000000000404040F0F8F8FF38FFF8F83FF8F8FF38FFF8F8F040404000000000006F
:2006C0000080C0C0C0800000C0C08000000080C0C000C0C0000080C0C00000000000C0C0DA
:2006E000C0C0C000C0C000000000000000000000000000000000000000000000000000003A
:200700000000000000000000000000000000000000000000000000000000000000C0F0F831
:20072000FC3E1E06010000007F4141417F007F4141417F000080C0E07E5B4F5BFEC0000077
:20074000C000DCD7DEDEDED7DC00C000000000000000000000000000000000000000000019
:2007600000000000494949FFFFFFFFE0DFBFBF00BFBFDFE0FFFFFFFF494949000000000051
:200780001F3F6060E0BF1F007F7F071E381E077F7F007F7F0E1F3B716000000000007F7FCA
:2007A0000C0C0C007E7E007F7E0303007F7E03037E7E03037F7E000F3E703C063C703E0F1C
:2007C00000327B49493F7E007F7E0303001E3F69696F2600000000000000000000030F1F25
:2007E0003F3C7870600000007F4141417F007F4141417F00307B7F7830202030787F3B0040
:2008000003000F7F0F0F0F7F0F000300000000000000000000000000000000000000000089
:2008200000000000010101070F0F7F0F7F0F0F7E0F0F7F0F7F0F0F07010101000000000094
:20084000000000000001010000000000000000000000000000000000000000000000000096
:20086000000000000000000000000000000000000000000000000000000000000000000078
:20088000000000000000000000000000000000000000000000000000000000000000000058
:2008A000000000000000000000000000000000000000000000000000000000000000000038
:2008C00000000000000000000000000000000000000000000000000000000000000000AF69
:2008E00000AE20200053004341505357002020004320002020004E200020472000204120E0
:2009000000204320002053200005010902A10185020901A1000509190129081500250195B3
:2009200008750181020501093009311581257F95027508810609381581257F950175088159
:2009400006050C0A38021581257F950175088106C0C005010980A101850319012AB700151F
:200960000126B700950175108100C0050C0901A101850419012AA002150126A00295017528
:20098000108100C005010906A1018506050719E029E71500250195087501810205071900B9
:2009A00029EF1500250195F075018102050819012905950575019102950175039101C00509
:2009C000010906A101050719E029E71500250195087501810295017508810105071900299C
:2009E000FF150026FF009506750881000508190129051500250195057501910295017503E4
:200A00009101C009023B00020100A0FA0904000001030101000921110100012244000705DF
:200A2000810308000109040100010300000009211101000122B6000705820320000112013D
:200A400000020000000832FC87020100010200010C0353006F0066006C00650000001A03AB
:200A60004A006F007300650066004100640061006D00630069006B0000000403090411248C
:200A80001FBECFEFDAE0DEBFCDBF12E0A0E0B1E0E6E6F5E602C005900D92A03AB107D9F7D6
:200AA00027E0A0EAB2E001C01D92A932B207E1F70E9400290C9463320C9400009091280747
:200AC000899FC0011124811522E0920714F090E080E0885D9A4F90932705809326050895FB
:200AE000482F209122059091D90459E0291302C080E0089530E0529FF001539FF00D11245F
:200B0000E652FB4F8181681306C08081481303C085818111EECF2F5F3F4F2770E7CFE8ED5E
:200B2000F0E080818E7F80831092E2001092DA001092E100A0EEB0E08C9181608C93808115
:200B40008F77808319BCA7EDB0E08C918E7F8C9380818F7E80831092C20408952091E4009F
:200B60003091E50095E6A9012091EC00822F817020FF06C08091E80080FF06C080E008954B
:200B80002091E80022FD1AC08091CF04882389F0853089F08091EB0085FD0FC02091E400AB
:200BA0003091E50042175307F9F29150E1F684E0089582E0089583E0089581E0089580912A
:200BC000D10487FF13C08091E80082FF06C08091E8008B778093E80004C08091CF04811177
:200BE000F2CF08958091CF048823D9F38091E80080FFF8CF8091E8008E77ECCF982F90935A
:200C0000E900242F762F50E0891731F07091EC002091ED005091F00021FD07C09F5F9730FC
:200C200071F78093E90081E008953091EB003E7F3093EB003091ED003D7F3093ED00309160
:200C4000EB0031603093EB007093EC002093ED005093F0002091EE0027FDE0CF80E0089599
:200C6000B0E0A0E0E6E3F6E00C943C31C8EDD0E088818F7E8883E7EDF0E0808181608083A9
:200C800084E082BF81E08093C20488818E7F888302EE10E0F80110821092DA0081EEC82E08
:200CA000D12CF601108288818F77888388818068888388818F7D888319BC1092CF0410928C
:200CC000D0041092CE041092CD0490EEE92EF12CF70180818B7F808388818160888342E08A
:200CE00060E080E00E94FE05F60180818E7F8083F801808181608083808188608083F701E5
:200D000080818E7F8083888180618883CDB7DEB7E8E00C945831FC018091D7049091D804DD
:200D200086179707A0F06115710529F49091E8009E779093E80090E06115710551F4911173
:200D400008C08091E80082FF34C080E00895BC01F2CF8091CF048823C1F18530C1F1809129
:200D6000E80083FD30C08091E80082FDEACF8091E80080FFE1CF8091F3002091F200382FB4
:200D80006115710519F02830310558F091E02830310509F090E02091E8002E772093E80047
:200DA000CBCF81918093F100615071092F5F3F4FE7CF8091CF04882341F0853041F08091CF
:200DC000E80083FFBECF81E0089582E0089583E008958091C404089587E797E79093010891
:200DE0008093000888E19AE00FB6F894A895809360000FBE90936000FFCFCF92DF92EF9283
:200E0000FF922FB7F894C090BE04D090BF04E090C004F090C1042FBFA7019601261B370B71
:200E2000480B590BCA01B901FF90EF90DF90CF9008952FB7F8946091BE047091BF04809103
:200E4000C0049091C1042FBF0895909126029923D1F09091BB0497FF16C0E82FE695E6953E
:200E6000E695EE31E0F4F0E0E655FD4F282F277081E090E001C0880F2A95EAF780959281CE
:200E8000892382830895E4EAF2E09191891303C0DF0111971C9292E0EA3AF907B1F70895D2
:200EA000909126029923C1F09091BB0497FF14C0E82FE695E695E695EE31F8F4F0E0E65594
:200EC000FD4F877021E030E001C0220F8A95EAF78281822B82830895A4EAB2E0EFEF90E00C
:200EE0002D91821751F0EF3F19F4211101C0E92F9F5F9630A9F7EF3F09F408950E2E000CA0
:200F0000FF0BEE55FD4FE6CFA3E0B0E0EAE8F7E00C9442312091B9043091BA042817390748
:200F2000A1F09093BA048093B904E091B704F091B804309751F024E029839B838A8300849F
:200F4000F185E02DCE01019609952396E2E00C945E31A3E0B0E0EFEAF7E00C9442312091D9
:200F6000B5043091B60428173907A1F09093B6048093B504E091B704F091B804309751F013
:200F800023E029839B838A830084F185E02DCE01019609952396E2E00C945E318091B204FB
:200FA000811103C08091B4040895E091B704F091B804309729F00190F081E02D09950895E3
:200FC00080E008958091A70480FD16C081FD16C082FD16C08091A6048823A1F0883280F437
:200FE00028E0829FC001112468E270E00E947531862F672B39F0089582E0089584E00895E3
:2010000088E0089581E008958091A70480FD14C081FD14C082FD16C08091A504882381F043
:201020008E3180F420E5829FC00111246EE170E00E947531862F089584E1089588E208951F
:2010400088E0089580E50895282F35EB2303C001112497FF04C080589109892F08958058FD
:201060009F4FFBCFFC01680F791F8FEF91E32191822728E030E087FF09C0880F8927215040
:201080003109C9F7E617F70791F70895880FF7CFDC016091A1048091A204962F891301C08D
:2010A0000895292F30E0F901EE0FFF1FE756FB4F408151814A175B07A1F487E08A9FA00173
:2010C0008B9F500D112443585E4F81E0FA0184839613E6CF2F5F3F4F237033272093A104EA
:2010E00008952F5F3F4F922F9370D8CF10922D0410922C04EDE7F1E085E292E025812111D1
:2011000002C01482168237968E179F07B9F7089590E06623A1F084589E4FFC0120812F3F1B
:2011200089F0E22FE295EF70F0E080A190E02F7002C0959587952A95E2F781700895855844
:201140009E4FEBCF80E0089590E06623E9F084589E4FFC0180818F3FB1F0E82FE295EF70F6
:20116000F0E041A18F7021E030E0B90102C0660F771F8A95E2F7CB01962F9095942391A38D
:2011800092A1892B82A3089585589E4FE2CF90912204E92FF0E0409123049F012F5F3F4F48
:2011A0002370332742171306A9F0EC5DFB4F282F2F7780818078822B60FB87F980839F5F25
:2011C000937090932204809120048F5F8093200481E0089580E0089580E0089581E08093FD
:2011E000EA030895F894E82FE295EF70F0E031A1282F2F7081E090E001C0880F2A95EAF78B
:20120000982F9095932391A392A1892B82A3789408950F931F938091B204882329F00E94C2
:2012200019071F910F9108950E94190700917F03109180032091810330918203600F711F2E
:20124000821F931FEECF9091BB0492FF10C041E0282F2471243009F040E031E0282F2871C2
:20126000283009F030E0431711F02CE0822793FF10C041E0282F2471243109F040E031E00F
:20128000282F2871283109F030E0431711F02CE082273091BC0430FF10C051E0282F217152
:2012A000213009F050E041E0282F2871283009F040E0541711F029E0822731FF10C041E0F3
:2012C000282F2171213109F040E031E0282F2871283109F030E0431711F029E0822794FDB9
:2012E000877E089582389105B9F1B0F48133910509F47DC048F48932910509F46DC08A32B7
:20130000910509F47BC008958533910509F45FC08933910509F10895833E9105D9F138F4C2
:20132000803E910529F1823E910579F10895863E9105D9F1873E910509F43EC0843E910510
:2013400041F52091BC0421FF24C08091BB0484FD19C087EE90E008952091BB04237009F03A
:201360005AC02091BC0423FF14C089E290E008952091BB0420FD38C03091BC0430FF09C076
:2013800024FF43C090E080E008952091BB0422FDF7CF08952091BB0422FD3AC03091BC04BE
:2013A00030FD39C024FFF5CFEDCF2091BB0423FFF0CF24FDE7CFCDCF2091BB0423FD2EC022
:2013C0003091BC0431FFEECF84EE90E008952091BB0425FFDECFC9CF2091BB0425FD21C0D4
:2013E0002091BC0423FFD5CF89E390E0D2CF2091BB0426FFCECF8AE290E008952091BB041E
:2014000026FFC7CF81E390E0089583EE90E0089582EE90E0089580EE90E0089586EE90E046
:20142000089585E390E00895972F7A30B8F46630A8F48530B0F470E026E0929F600D711D71
:201440001124FB019CE3899FE00DF11D1124EE0FFF1FEC5DFE4F85919491089580E090E02B
:20146000089581E0FCCF1F93CF93DF930E947209EC01C11580E5D807F0F5C11580E4D807FB
:2014800008F09CC0C03ED10520F5CD3CD10508F082C0C83AD10578F4C53AD10508F073C0B2
:2014A000C130D10519F1209709F1C430D105F0F4D0E0C0E01BC0C33CD105D0F7C85AD0E063
:2014C000CC0FDD1FCB5BDD4F0990D881C02DD4640DC0C11580E2D80708F0D1C0C11581E028
:2014E000D80708F05AC0C83ED10510F7CE01DF91CF911F910895C03682E5D80718F5C034EF
:2015000082E5D80708F06BC0C03282E5D80708F05FC0C11582E5D80708F497C02C2F26958E
:20152000269580E2289F900111248C2F8370C1E0D0E002C0CC0FDD1F8A95E2F7C22BD32B86
:20154000DD68D4CFC03A82E5D80760F4C03882E5D80708F459C0CF71D0E0DC2FCC27C46F9B
:20156000D06AC4CFC03C82E5D80708F462C0C03E82E5D80708F09CCFDC2FCC27CC27DF7156
:20158000C06FD06AB3CFC55AD0E0CE5BDD4FC881D0E0D064ABCFD065A9CF8D2F0E9423095E
:2015A000182FCE0199270E947209C12FD0E0DC2FCC27CC27DF71C82BD92B98CFCE0199276A
:2015C0000E947209CC27DF70C82BD92BD06A8ECFCF71D0E0DC2FCC27C16FD06A87CF2C2F15
:2015E00026952695277080E2289F900111248C2F8370C1E0D0E002C0CC0FDD1F8A95E2F75F
:20160000C22BD32BDC6872CF2C2F26952695277080E2289F900111248C2F8370C1E0D0E004
:2016200002C0CC0FDD1F8A95E2F7C22BD32BDA685DCF8C2F8F710E942309C82FD0E0DC2F85
:20164000CC27CC27DF71D06251CF8C2F8F710E94230955E0D695C7955A95E1F7CF70D0E0C7
:20166000DC2FCC27282F30E084FF05C044E0220F331F4A95E1F7C22BD32BD06937CF8D2F79
:201680008F710E942309182FCE0199270E947209C12FD0E0DC2FCC27CC27DF71C82BD92BB1
:2016A000D2CF8091700381111092700308958095909128049823909328040895CF93C09105
:2016C000280480912E04C82B80917003882391F0C82B80912602882381F08091BB0487FF5A
:2016E0000CC02EE18CEA92E030E0215050F431110E94510B8C2FCF91089526E084EA92E084
:20170000F3CFFC014191CF01442379F33F5FEDCF809122059091D904981301C008958F5F0E
:201720008770FACFB0E0A0E0E8E9FBE00C943B317C010091F2031091F30380918F039091C3
:201740009003082B192BCFE0D0E0CC24C394D12CBC2EC6010C2E02C0880F991F0A94E2F769
:2017600080239123892B49F4219790F7B12C8B2DCDB7DEB7E9E00C945731B7018C2F0E942E
:20178000140A0E94330A019779F3F1CFCF93DF93EC010E94920BBE010E94140A0E94330A2A
:2017A000DF91CF9108959A3078F5863068F5E82FF0E086E0989FE00DF11D11249E2F9770EA
:2017C00083E0F695E7958A95E1F7EE0FFF1FEE0FFF1FE353FD4F50E040E080E0219130E07E
:2017E000092E02C0369527950A94E2F721703327042E01C0220F0A94EAF7822B4F5F5F4F5B
:201800004430510559F7089580E008959A3098F5863088F5E82FF0E086E0989FE00DF11D0B
:2018200011248E2F877041E001C0440F8A95EAF783E0F695E7958A95E1F7EE0FFF1FEE0F11
:20184000FF1FE353FD4F30E020E070E05191DF011197CB01022E02C0969587950A94E2F7A2
:20186000817081958527842385278C932F5F3F4F2430310559F708959093F3038093F2038F
:20188000089521E030E002C0220F331F8A95E2F7209530958091F2039091F303822393236B
:2018A0000E943C0C08959091F602809589238093F602282F277069F4891759F09091BC04A7
:2018C00092FF07C08695869586950E94410C1092F602089521E030E002C0220F331F8A95C4
:2018E000E2F78091F2039091F303822B932B0E943C0C08959093900380938F030895FC010B
:2019000084818823F9F087819085009791F00E94330A92959F709630B9F080F4925F9F7001
:20192000923080F4803F19F058F4883E58F481E00895808191810E94C60BEBCF9A5FEFCF56
:20194000843FA9F380E00895883E88F3813FD1F7EECF292F332740E02115310511F0C9019C
:2019600048E09C0164E0369527956A95E1F72115310511F04C5FC9019C013695279536952F
:2019800027952115310511F04E5FC90196958795892B09F04F5F842F0895A6E0B0E0E3EDCF
:2019A000FCE00C9441319C01FC01878190850097E1F486E0DE01119601900D928A95E1F703
:2019C000F901258189819A81222399F0662389F00E94920B182F682F89819A810E94060C7C
:2019E00069817A81812F0E94140A2696E3E00C945D310E94D30B182FF3CF0F931F93CF93A6
:201A0000DF9301E010E0082E02C0000F111F0A94E2F7C091CA02D091CB029E012023312354
:201A2000232BB1F49091F602969596959695891302C01092F6020E946A0CC027D127D093C7
:201A4000CB02C093CA02DF91CF911F910F9108950E94410CF2CF0F931F93CF93DF938B0179
:201A6000EA019091CF04943061F58093E9008FEF9091E800815095FD06C095ED9A95F1F728
:201A800000008111F5CF8091E80085FF1AC00E94AE05811111C08091E80085FD06C080918F
:201AA000E8008E778093E800F2CFF80181918F018093F100219779F78091E8008E778093A5
:201AC000E800DF91CF911F910F91089543E050E0BC0182E00E942B0D089546E050E0BC0165
:201AE00082E00E942B0D089540E250E0BC0182E00E942B0D0895CF93DF93EC0148E050E00C
:201B0000BC0181E00E942B0D88E0FE01A5ECB4E001900D928A95E1F7DF91CF910895B0E01D
:201B2000A0E0E5E9FDE00C943A317C015B016A0180917E0301E010E08A3010F40AE010E030
:201B4000C1E0D0E0B501C701F6010995811104C021960C171D072CF4CDB7DEB7EAE00C942A
:201B60005631CC9F9001CD9F300D300D112490E080E045E34A95F1F700000196821793073E
:201B8000C1F7E0CF80912602882359F18091BB0487FF27C00E945E0B8093AB0240E250E056
:201BA00067EF72E08AEA92E00E94FB31892BC1F080E2EAEAF2E0A7EFB2E001900D928A95E5
:201BC000E1F7E091B704F091B804309749F086E08093AA020480F581E02D8AEA92E0099514
:201BE00008950E945E0B8093A20248E050E067E173E082EA92E00E94FB31892B89F388E04F
:201C0000E2EAF2E0A7E1B3E001900D928A95E1F7E091B704F091B804309711F30280F381BA
:201C2000E02D82EA92E0DBCF80912B04882349F080912E048D7D80932E040E94C20D109246
:201C40002B040895882321F00E94570B0E94C20D0895882339F090912804982B90932804B7
:201C60000E94C20D08951F93CF93DF93162F8A3039F481E00E94F10EDF91CF911F91089585
:201C80008D3011F480E0F6CFC0912605D091270596E0FE01ACEEB3E001900D929A95E1F77B
:201CA000803E90F186E0FE0111928A95E9F7C0912605D0912705111133C046E050E0BE01AB
:201CC0008CEE93E00E94FB319E0128523540892B91F52A5F3F4F40912807642F70E0C901BD
:201CE0000E941E31481B463010F4240F311D211572E0370710F030E020E0285D3A4F3093EE
:201D0000270520932605B8CFF6E08F9FB001112462567C4F46E050E0CE010E94F231C7CF45
:201D20009E012A5F3F4FFE012E173F0731F2808180958193F9CFC90145E0969587954A9539
:201D4000E1F741E050E0BA0102C0660F771F8A95E2F7CB016091160470911704862B972B74
:201D6000B9016B5F7F4FE5E076956795EA95E1F702C0440F551F6A95E2F7842B952B9093FB
:201D8000170480931604A5CF1F93CF93DF93EC01162FFE018491811104C0DF91CF911F91E5
:201DA0000895612F0E94330E2196F3CFFF920F931F93CF93DF93EC01F62EFC010190002022
:201DC000E9F78F0101501109C017D10728F0CDB7DEB7E5E00C945B316F2D89910E94330EBE
:201DE000F3CFCF93382FE0912605F0912705E852F54020912807622F70E0CF010E941E311E
:201E0000281B822F332369F066E00E946931C82FC15010F4CF91089560E080E20E94330E0F
:201E2000F7CF9F01280F311D2115324018F080E0F0E0E0E08E0F9F2F911D885D9A4F90930D
:201E4000270580932605E6CFAB0124E630E0BC0188E70E94D22E21E0892B09F020E0822F70
:201E6000089580911C0490911F04911103C091E089270895882369F062E070E080EE98E0B1
:201E80000E94240F811103C080911C04089510921C0480911C04EBCFCF93C0911C048091B9
:201EA0001F048823D1F00E94190760547B428E4F9F4F609318047093190480931A04909312
:201EC0001B04C11108C062E070E08EED98E00E94240F811105C0C0911C048C2FCF9108956F
:201EE00081E080931C04F7CF9091BC0492FB222720F9281779F080FB92F99093BC04609136
:201F0000BB047091BC0484E090E00E944D3282E00E94530C0895B0E0A0E0E1E9FFE00C94F3
:201F20003D317901C82F880FDD0B41155105A9F0FE0193E0EE0FFF1F9A95E1F7E050FF4FEC
:201F400081819281855D9C4F208130E04217530708F49A01A9010E940832CE010E94A830D5
:201F6000D82E8823D1F001151105B9F083E0CC0FDD1F8A95E1F7FE01E050FF4F438150E078
:201F80000417150708F4A801C050DF4F6C817D81655D7C4FC7010E9408328D2DCDB7DEB738
:201FA000E7E00C945931A4E0B0E0E9EDFFE00C9440316091720370917303809174039091D0
:201FC00075030E94FD0641E0643671058105910508F440E03091280439836436710581053C
:201FE000910520F420914803231341E090912E049A83411106C041E020914903291301C041
:2020000040E0909170039B83411106C041E020914A03291301C040E0909171039C83411194
:2020200005C080914B0311E08917C9F010E000E030E020E044E050E0BE016F5F7F4F8AE039
:202040000E948B0F182F882351F00E94190760937203709373038093740390937503812F99
:202060002496E4E00C945C31A4E0B0E0EAE3F0E10C944031609160037091610380916203C3
:20208000909163030E94FD0611E0643671058105910518F10E9409096E5F7F4F8F4F9F4FD3
:2020A00069837A838B839C8310E000E030E020E044E050E0BE016F5F7F4F86E00E948B0FD9
:2020C000182F882351F00E94190760936003709361038093620390936303812F2496E4E01F
:2020E0000C945C31B0E0A0E0E8E7F0E10C943A31C82F7B01D42F69015801FB0160817181F0
:20210000828193810E94FD06643671058105910510F4DD23C9F010E000E030E020E0A50194
:20212000B6018C2F0E948B0FC82F882339F00E941907F70160837183828393838C2FCDB73B
:20214000DEB7EAE00C945631C1E0F8CFA1E0B0E0ECEAF0E10C94403180911C0489832091DA
:202160004D0390E041E02817190609F440E001E010E09E012F5F3F4F6AE773E08CE00E94C5
:2021800072102196E4E00C945C31A1E0B0E0EBECF0E10C9440318091A803898341E0909141
:2021A0004C03981301C040E001E010E09E012F5F3F4F66E773E08BE00E9472102196E4E00E
:2021C0000C945C31A1E0B0E0E8EEF0E10C9440310E94CE07898341E090914703981301C08E
:2021E00040E001E010E09E012F5F3F4F6CE673E089E00E9472102196E4E00C945C310F93B7
:202200001F9341E020914303309144038091F2039091F3032817390709F440E002E010E061
:2022200022EF33E068E673E087E00E9472108823B1F041E0209145033091460380918F033B
:20224000909190032817390709F440E002E010E02FE833E064E673E088E00E9472101F9159
:202260000F9108950F931F93CF93DF93EC0145E050E061E373E00E94FB3141E0892B09F480
:2022800040E005E010E09E0167E573E082E00E947210DF91CF911F910F910895A1E0B0E0B7
:2022A000E4E5F1E10C943731762E4A015901680101E010E09E012F5F3F4F50E040E070E09D
:2022C00060E00E948B0F182F882399F1F40160817181828193810E94FD06643671058105EC
:2022E000910538F4B701C6010E9432089981891701F18701950150E040E070E060E0872D63
:202300000E948B0FB82EB701C6010E94320811E09981981310E01B2139F00E941907F4017E
:202320006083718382839383812F2196EDE00C945331A701B601C5010E940832F5CFA8E006
:20234000B0E0E5EAF1E10C943E3188E0E82EF12C07E313E09E012F5F3F4F4CE553E064E062
:2023600083E00E944E11182F8823C1F19091360380915B03981791F1F12C90913A038091CF
:202380003903891729F1E92FF0E0E15DFC4F848587FB662760F99F5F937090933A039091E3
:2023A00038039F5F909338038F770E94C708F82E8111E3CF10E000E030E020E050E040E075
:2023C00070E060E085E00E948B0F182F1F2102C0F110F0CF8091360380935B03812F28969A
:2023E000E6E00C945A31A5E0B0E0E9EFF1E10C943C316B0185E0E82EF12C0CE213E09E019C
:202400002F5F3F4F43E553E061E080E00E944E11882349F095E0FE013196AEE4B3E00190CE
:202420000D929A95E1F795E0EEE4F3E0D60101900D929A95E1F72596E8E00C9458311F9271
:202440000F920FB60F9211242F933F934F935F936F937F938F939F93AF93BF93EF93FF93C8
:202460008091E10082FF09C08091E20082FF05C08091E1008B7F8093E1008091DA0080FF8D
:2024800024C08091D80080FF20C08091DA008E7F8093DA008091D90080FF9DC080E189BDBE
:2024A00082E189BD09B400FEFDCF81E08093CF048091C204811109C00E948F050E94300665
:2024C0008091E20084608093E2008091E10080FF17C08091E20080FF13C08091E2008E7FA3
:2024E0008093E2008091E20080618093E2008091D80080628093D80019BC85E08093CF0448
:202500008091E10084FF2BC08091E20084FF27C080E189BD82E189BD89B5982F917080FF29
:20252000FBCF8091D8008F7D8093D8008091E1008F7E8093E1008091E2008F7E8093E20009
:202540008091E20081608093E2008091D004882309F447C084E08093CF048091CF048091DF
:20256000E10083FF27C08091E20083FF23C08091E100877F8093E10082E08093CF041092E3
:20258000D0048091E1008E7F8093E1008091E2008E7F8093E2008091E20080618093E200B6
:2025A00042E060E080E00E94FE058091F00088608093F000FF91EF91BF91AF919F918F91D8
:2025C0007F916F915F914F913F912F910F900FBE0F901F90189519BC1092CF041092C20472
:2025E00074CF8091E30087FD93E09093CF04B5CF78941F921FB61F9211248F939F93AF9325
:20260000BF938091BE049091BF04A091C004B091C1040196A11DB11D8093BE049093BF04D8
:20262000A093C004B093C104BF91AF919F918F911F901FBE1F9018959C014FB7F894809193
:20264000BE049091BF04A091C004B091C1044FBF821B930B08952FB7F8948091BE0490918D
:20266000BF04A091C004B091C1042FBF08950E942B139C019091AE048091AF04982B21F029
:202680003093AB042093AA049091B0048091B104982B21F03093A9042093A804E091B704FD
:2026A000F091B804309749F082E08093AC040680F781E02D8CEA94E00995089510922804BA
:2026C00080912602882339F18091BB0487FF23C0ECEAF2E08EE1DF011D928A95E9F790E09E
:2026E00080E00E94A90790E080E00E94840710922E040E94C20D86E0ECEAF4E0DF011D9247
:202700008A95E9F71092A5041092A6041092A7040E9437130895E4EAF2E086E0DCCFAAE210
:20272000B0E0E5E9F3E10C94413181ED94E02091F100FC012193CF01F4E0893D9F07B9F760
:202740008091D204833009F470C0B8F4813009F447C0823009F4B1C08091E80083FF7EC276
:202760008091D1049091D2049A3008F077C2E92FF0E0EB59FD4C0C94CA318A3009F48CC06E
:202780008B3009F46FC0893039F78091D104813219F78091D5049091D6040297E8F6809153
:2027A000E800877F8093E8008091E80082FF38C09091F3008091F200029731F48091F100E7
:2027C000813011F0863021F48091F1008093C4048091E8008B778093E8000E94DF05BCCF98
:2027E0008091D104813A09F0B7CF8091E800877F8093E8008091D5049091D604892B61F4D1
:2028000068E085EC94E070E00E948B068091E8008B778093E800A0CF60E090E080E0F3CFD1
:202820008091CF048111C0CF97CF8091D104813A09F092CF8091D5049091D604892B09F0A0
:202840008BCF8091E800877F8093E8008091E80080FFFCCF809126028093F1008091E800AB
:202860008E77B9CF8091D104813209F075CF8091D5049091D604892B09F06ECF8091E8002D
:20288000877F8093E8000E94DF058091D304809326020E945E1360CF8091D104813209F0BA
:2028A0005BCF8091E800877F8093E8000E94DF058091D4048093C3044FCF8091D104813AEC
:2028C00009F04ACF8091E800877F8093E8008091E80080FFFCCF8091C304BECF803899F003
:2028E000823809F0BBC18091D5048F70873008F0B5C18093E9008091EB0085FB882780F9FB
:202900001092E90006C08091CD049091CE04911182609091E800977F9093E8008093F100DF
:202920001092F1008091E8008E7794C1882309F482C1823009F092C18091D304811185C108
:202940008091D5048F702FEF280F263008F086C18093E9002091EB0020FF77C1933031F4CD
:202960008091EB0080628093EB006FC19091EB0090619093EB0021E030E001C0220F8A951E
:20298000EAF72093EA001092EA008091EB008860EACF811163C11091D3041F778091E300D8
:2029A0008078812B8093E3008091E800877F8093E8000E94DF058091E80080FFFCCF8091A9
:2029C000E30080688093E30082E0111183E08093CF0444C18058823008F040C18091D304F9
:2029E0009091D4048C3D23E09207A1F583E08A838AE289834FB7F894DE01139620E03EE0C3
:202A000051E2E32FF0E050935700E49120FF03C0E295EF703F5FEF708E2F90E0EA30C0F046
:202A2000C7968D939D932F5F243159F74FBF8091E800877F8093E8006AE270E0CE010196AC
:202A40000E948B068091E8008B778093E80006C1C096E7CF4091D5045091D604292F332763
:202A60002330310509F444C078F52130310509F46FC08BE390E0E3E0FAE02230310509F0B0
:202A8000EDC02091E800277F2093E8002091D7043091D8048217930708F49C0140E0211564
:202AA000310509F064C0411162C08091E80082FDC9CF8091CF04882329F2853019F28091C4
:202AC000E80083FFF2CFBECF21323105A9F12232310509F0C3C04115510509F443C04130F8
:202AE000510509F0BBC086EB90E0E9E0F9E0C9CF992781309105C1F0009759F0029709F0C7
:202B0000ADC0E0E5FAE0E4918E2F90E0E0E5FAE007C0EAE7FAE0E4918E2F90E0EAE7FAE0A9
:202B2000009709F49BC0ADCFEEE5FAE0E4918E2F90E0EEE5FAE0F4CF4115510571F04130ED
:202B4000510509F08BC089E090E0EEE2FAE099CF82E190E0EEE3FAE094CF89E090E0E5E170
:202B6000FAE08FCF84E490E0EFEBF9E08ACF8091CF04882309F466CF853009F463CF809183
:202B8000E80083FD5FCF8091E80082FD8ECF8091E80080FF84CF9091F3008091F2002115B2
:202BA000310519F08830910550F041E0089709F040E08091E8008E778093E80070CF449162
:202BC0004093F1003196215031090196E8CF803809F044C08091E800877F8093E8008091B1
:202BE000D0048093F1009ECE811138C01091D3041230A0F58091E800877F8093E80010931B
:202C0000D0040E94DF05112311F084E005C08091E30087FDFACF81E08093CF0442E061EC05
:202C200081E00E94FE0542E261EC82E00E94FE058091CF0413C08091D304813079F481E0F8
:202C4000933009F080E08093CE041092E9008091E800877F8093E8000E94DF058091E8006F
:202C600083FF0AC08091E800877F8093E8008091EB0080628093EB00AA96E3E00C945D3101
:202C80001F920F920FB60F9211242F933F934F935F936F937F938F939F93AF93BF93CF9381
:202CA000DF93EF93FF93D091E900DF708091EC00C82FC17080FDC0E81092E9008091F0001F
:202CC000877F8093F00078940E948F131092E9008091F00088608093F000CD2BCF70C0939A
:202CE000E900FF91EF91DF91CF91BF91AF919F918F917F916F915F914F913F912F910F901C
:202D00000FBE0F901F9018950E945E132FEF84E39CE0215080409040E1F700C0000088E1D5
:202D20009AE00FB6F894A895809360000FBE90936000FFCF4091AE049091B0042091B1043C
:202D4000662309F469C0942B922B2091AF04922B31F098E09093A50491E09093A6048D3CBB
:202D600041F40E94040881958093AF040E94371308958E3C19F40E940408F6CF8F3C31F4D1
:202D80000E94040881958093AE04F0CF803D19F40E940408F8CF893D29F40E94E20780932B
:202DA000B004E4CF8A3D21F40E94E2078195F7CF8B3D31F40E94E20781958093B104D6CF6E
:202DC0008C3D19F40E94E207F8CF9FE2980F983070F4815D990B21E030E001C0220F8A95D3
:202DE000EAF78091AD04822B8093AD04BFCF8D3D31F48091A70481608093A704B7CF8E3D96
:202E000021F48091A7048260F7CF8F3D09F0AECF8091A7048460F0CF8D3C59F48091AF04BE
:202E200087FF0DC01092AF0441110BC01092A50408C08E3C81F48091AF0418169CF3442393
:202E400081F08091B0049091B104892B09F08ECF1092A6048BCF8F3C49F447FFF0CF109207
:202E6000AE048091AF048111ECCFE0CF803D19F41416ACF3E4CF893D29F4191604F71092EB
:202E8000B004DDCF8A3D19F497FFD9CFF8CF8B3D29F427FFD4CF1092B104D1CF8C3D19F47E
:202EA0001216CCF3CCCF9FE2980F983090F4815D990B21E030E0B90102C0660F771F8A95E3
:202EC000E2F7CB0180959091AD0489238093AD04B6CF8D3D31F48091A7048E7F8093A704FB
:202EE000AECF8E3D21F48091A7048D7FF7CF8F3D09F0A5CF8091A7048B7FF0CF882381F10C
:202F00009CEF980F913A28F40E9425070E94C20D089590E2980F983050F4877091E001C06E
:202F2000990F8A95EAF7892F0E94570BEFCF9BE5980F933028F490E080E00E94A9070895AA
:202F400098E5980F9B3128F490E080E00E948407089593E3980F933118F460E00E949A164C
:202F60000895CF93C82F8823B1F18CEF8C0F813AA0F580912602882301F18091BB0487FF7C
:202F80001CC0EC2FE695E695E695F0E0E655FD4F828190E04C2F477021E030E002C0220FC9
:202FA000331F4A95E2F782239323892B79F08C2F0E9425070E94C20D09C0E4EAF2E081911A
:202FC000C817A9F382E0EA3AF807C9F78C2F0E9450070E94C20DCF91089580E28C0F88305A
:202FE00068F4C77021E030E001C0220FCA95EAF780912804822B80932804EBCFEBE5EC0F4D
:20300000E33040F4F0E0EE5BFD4F808190E00E94A907E1CFE8E5EC0FEB3150F4F0E0EE0F9C
:20302000FF1FEB5BFD4F808191810E948407D3CF83E38C0F833178F661E08C2F0E949A168D
:20304000CACF1F93CF93DF93182FEB010E94B1178FE99FE00197F1F700C000002197C1F70D
:20306000812F0E947E17DF91CF911F9108950F931F93CF93DF93C62FD42F022FFC018581F8
:203080008823A9F0609325050E942B139093240580932305C77081E001C0880FCA95EAF738
:2030A0000E94290EDF91CF911F910F91089580912505681334C080912305909124050E94AB
:2030C0001C13883C910558F510E21D0FCD17B9F080E28C0F883040F4C77081E001C0880F96
:2030E000CA95EAF70E94220E183048F481E09D2F977001C0880F9A95EAF70E94290E6AE07B
:2031000070E0802F0E942118183060F6D77081E001C0880FDA95EAF70E94220EC3CFC7704C
:2031200081E001C0880FCA95EAF7F6CF80E09091230420912204291739F1E92FF0E0EC5DB7
:20314000FB4F808187FB222720F98F779F5F937090932304909121049F5F909321048823B8
:2031600049F0813079F46AE070E08EE4211108C08BE406C06AE070E089EA211101C08AEA49
:203180000E94211881E0D3CF089580912B0481110FC0109228040E94510B0E942B13885788
:2031A0009C4E90932A048093290481E080932B0408952F923F925F926F927F928F929F926D
:2031C000AF92BF92CF92DF92EF92FF920F931F93CF93DF9380911F04882309F4B5C08091EF
:2031E0001D0490911E040E941C13C29708F48CC00E942B1390931E0480931D0480E00E949E
:203200005E058091B204882309F4B0C080E00E945E058091F2039091F3030E94A90C61E052
:20322000811160E087E292E00E94D60E82E00E945E058091F2039091F3030E94A90C61E03F
:20324000823009F060E08DE292E00E94D60E84E00E945E058091F2039091F3030E94A90C3F
:2032600061E0813009F060E081E392E00E94D60E86E00E945E058091F2039091F3030E949D
:20328000A90C61E0843009F060E087E392E00E94D60E88E00E945E058091F2039091F3035F
:2032A0000E94A90C61E0833009F060E08CE392E00E94D60E0E94CE07C82F81E00E94F10EB3
:2032C00083EF98E0C0FF02C086EF98E060E00E94C40E8DEE98E0C1FF02C080EF98E060E046
:2032E0000E94C40E82EE98E0C2FF02C085EE98E060E00E94C40E81E00E94F10E60912B042E
:2033000087EE98E00E94C40E8091160490911704892B09F07EC080911C048823A9F00E94E3
:203320001907009118041091190420911A0430911B04601B710B820B930B6F3F7F4F8F4FD7
:203340009F4710F40E94310FDF91CF911F910F91FF90EF90DF90CF90BF90AF909F908F90C9
:203360007F906F905F903F902F900895C091280480E2C1FD8CE360E00E94330E60E085E051
:2033800099E00E94C40E80E2C5FD8EE360E00E94330E81E00E94F10E80E2C0FD8CE360E0B8
:2033A0000E94330E60E081E099E00E94C40E80E2C4FD8EE360E00E94330E81E00E94F10EE3
:2033C00080E2C2FD8CE360E00E94330E60E08DEF98E00E94C40E80E2C6FD8EE360E00E941A
:2033E000330E81E00E94F10E80E2C3FD8CE360E00E94330E60E089EF98E00E94C40E80E2D0
:20340000C7FD8EE360E00E94330E81E00E94F10E7BCF80911F04882309F47DCF80911504B6
:20342000811179CF0E944C0F20911604309117042115310509F46FCF80E041E050E0082F7F
:2034400010E01A01082E02C0220C331C0A94E2F7B10162237323672B11F48F5FF0CF909143
:20346000140490FF95C0880F880F880F8093760110927901895F8093770183E080937A0181
:2034800024E630E047E050E064E771E088E70E948E2E892B09F03FCFA80125E0440F551F22
:2034A0002A95E1F78091140480FF84C0E4EFF3E080E2DF011D928A95E9F7ACE9B2E008E9DB
:2034C00012E080EAC82E82E0D82E97E0592E772473948D91E80129918E01240F352F311D5D
:2034E000285D3A4FE82FF0E0EC50FC4F90E080E0652C681A872C082E01C0880C0A94EAF7B0
:203500007901A12CE701B9907E01B820662D6A196770962E062E000C770BDB2D01C0DD0FB4
:203520009A94EAF77195619571096770772701C0B6946A95EAF7BD2A6081962E9B28908245
:20354000A39468E0A612DECF019631968830910579F6CA16DB0609F0BCCF04E610E020E24B
:2035600030E044EF53E060E488E70E94182F892B09F0D1CEE101C095D09580911604909105
:203580001704C823D923D0931704C0931604C3CE8295880F8076809376019801369527955F
:2035A0003695279520937901815E8093770120937A0166CF485D5A4F04E610E020E230E050
:2035C000D2CFAFE0B0E0E7EEFAE10C943731AE014F5F5F4F6A018AE0FA0111928A95E9F7F6
:2035E0008DE7E82E82E0F82E10E000E0AA24A394B12C28E8822E22E0922EF70181917F01FB
:203600008F3F09F442C0F894E82FE295EF70F0E021A18F70A50102C0440F551F8A95E2F7AC
:20362000CA01922F982B91A392A18095892382A3789400C0E2E8F2E0712C31E021912F3FB8
:2036400009F4CCC0A22FA295AF70B0E090968C9190E02F7002C0959587952A95E2F780FDBB
:20366000BDC0832F782A330F8E169F0639F7F701319780818F3F11F00E94F20850EA5A9569
:20368000F1F7F601E00FF11F70820F5F1F4F0530110509F0B2CF4AE050E0BE016F5F7F4F04
:2036A00083E893E00E94FB31009749F02AE0FE013196A3E8B3E001900D922A95E1F7009148
:2036C0008E0310E00F561C4F892B09F489C081E0809323030E942B139093220380932103A6
:2036E000D12CC090B204CC2009F4D1C07E018BE0E80EF11C85E0F70111928A95E9F7809150
:203700007E038A3008F090C043EF51E1B701C8010E948F0D882309F4A9C042E351E1B701E3
:20372000C8010E948F0D882309F4A0C04FE951E1B701C8010E948F0D882309F497C044E32B
:2037400050E1B701C8010E948F0D882309F48EC04FEF50E1B701C8010E948F0D882309F4AD
:2037600085C042EE50E1B701C8010E948F0D882309F47CC043ED5FE0B701C8010E948F0DD2
:20378000882309F473C045EC50E1B701C8010E948F0D882309F46AC046EA50E1B701C80179
:2037A0000E948F0D882309F461C010927E0380918D0390E045E050E0B7018F569C4F0E944F
:2037C000FB3121E020932A03892B09F042C0C12C8C2D8D292F96EDE00C94533180E042CFAA
:2037E000D0902303DD2009F47BCF80912103909122030E941C13059708F472CF45E050E085
:2038000063E873E0C8010E94FB31892B59F085E0E3E8F3E0D80101900D928A95E1F71092D1
:2038200023035FCFD12CFBCF80912403909125030E941C13843F914008F066CF80912A031C
:20384000882329F285E0F70111928A95E9F710922A03A0918D03B0E0AF56BC4F85E0FE010F
:203860003B9601900D928A95E1F7B2CF80917E038F3F31F08F5F80937E038A3008F497CFB0
:203880000E942B139093250380932403D7CFE0908D03F12CA7014F565C4F7A0185E0F8012F
:2038A000ACE2B3E001900D928A95E1F765E070E08CE293E00E94320880932B0385E0E1E304
:2038C000F3E0D70101900D928A95E1F788E0E0E2F4E0A7E3B3E001900D928A95E1F768E08C
:2038E00070E087E393E00E9432088093360380903F0390904003A0904103B09042038091B4
:20390000260390912703A0912803B091290388169906AA06BB06B1F0809226039092270394
:20392000A0922803B09229030E941907861A970AA80AB90A80927F0390928003A092810355
:20394000B092820380914303909144039093F3038093F20380914503909146039093900347
:2039600080938F03809147038093B4042091490390914A0380914B033091480330932804B7
:2039800020932E042091BC0422FF05C02091700392139093700390917103891380937103D4
:2039A00080914C038093A80380914D03882319F00E944C0F0DCF0E94310F0ACFB0E0A0E030
:2039C000E4EEFCE10C943B318C01FC018481882309F49AC061E0C8010E94CD0CEC01F80130
:2039E000F580FF20F9F09A9581159F44E0F5CE0199279C01245031092432310518F08B973D
:203A00000E9780F4E091AD03F0E0EE0FFF1FEE54FC4F808191818F3F2FE7920719F00196C4
:203A2000918380838091F2039091F3032091CA023091CB02AC014095509542235323452B95
:203A400031F0282339233093CB022093CA02C0343EE7D30781F4FF2009F447C00E94A90CAD
:203A60000E94FD0C42C090E080E0CF3FD10509F000F6CE01BECFC11582E5D807A8F4C1150C
:203A800090E5D90708F045C0C115E0E4DE0708F05FC0FE01E154FE47EF30F10508F071C087
:203AA000E159FD4C0C94CA31C032F2E5DF0788F3C03422E5D20728F0CE01805C9245809739
:203AC00040F78C2F8F7121E030E0082E02C0220F331F0A94E2F74091CA025091CB0224235F
:203AE0003523232BB1F2F110BBCF8091F602877059F0F8018581882339F08091BC0482FF84
:203B000003C082E00E94530CCDB7DEB7E9E00C945731CE0145E0969587954A95E1F78F7084
:203B200021E030E0082E02C0220F331F0A94E2F74091CA025091CB0224233523232B09F44D
:203B4000A8CFF1108DCF109228040E94C20DCDCFF8018681807F09F09CCFF11012C02D2F24
:203B60002F7081E090E002C0880F991F2A95E2F72091CA023091CB0282239323892B09F019
:203B8000B4CFC337FCE7DF07D9F4FF2009F4ADCF80912B04882309F467C10E94140EA5CF32
:203BA0008091BC048170FF2009F441C08823E9F184E00E9423090E94290E80E50E94B117C7
:203BC000F090700380912804F82A80912B04882309F44DC10E942B1388579C4E90932A04A3
:203BE00080932904F8018581882309F447C18F2D8D7909F090C1C034F2E5DF0708F063C1FD
:203C0000C11522E5D20708F039C1C11530E4D30708F03FC1C11580E2D80708F071C1C63EFB
:203C2000D10509F42BC1CE013FC181E0C2CF882349F084E00E9423090E94220E80E50E9415
:203C40007E17BECF81E0F6CF8091BC048170FF2059F0882339F084E00E9423090E94290E13
:203C60008FE4ACCF81E0F8CF882339F084E00E9423090E94220E8FE4E2CF81E0F8CF8091F9
:203C8000BC048170FF2021F08111CFCF8AE496CF8111D8CF8AE4D3CF8091BC048170FF2016
:203CA00021F08111DFCF8DE489CF8111E6CF8DE4C6CF81E00E942309FF2049F00E94290E3D
:203CC00088E00E9423090E94290E8CE277CF0E94220E88E00E9423090E94220E8CE2AFCF5B
:203CE00081E00E942309FF20A1F00E94290E8BE265CF81E00E942309FF2031F00E94290E23
:203D000082E00E942309F1CF0E94220E82E00E9423090E94220E8BE292CF88E00E942309DB
:203D2000FF2049F00E94290E82E00E9423090E94290E80E243CF0E94220E82E00E942309D3
:203D40000E94220E80E27BCF88E00E942309FF2049F00E94290E82E00E9423090E94290E75
:203D600081E22CCF0E94220E82E00E9423090E94220E81E264CF88E00E942309FF2099F09D
:203D80000E94290E82E00E9423090E94290E84E00E9423090E94290E81E00E9423090E9465
:203DA000290E8EE30BCF0E94220E82E00E9423090E94220E84E00E9423090E94220E81E048
:203DC0000E9423090E94220E8EE339CF88E00E942309FF2049F00E94290E81E00E94230934
:203DE0000E94290E84E1EACE0E94220E81E00E9423090E94220E84E122CFFF2009F4E0CEDA
:203E000084E30E94B11784E30E947E178CE20E94B11764CFFF2009F4D3CE84E30E94B1179A
:203E200084E30E947E1786E00E94B11786E007CFFF2009F4C5CE85E30E94B11785E3E4CF3C
:203E4000FF2009F4BDCE82E00E9423090E94290E83E20E94B11783E20E947E1782E00E9443
:203E600023090E94220ED2CF0E94C5183ECE22E2F21204C00E94C51810922505FE01E851C9
:203E8000FC47E730F10508F07FC0E258FD4C0C94CA31C11590E5D90708F0C5CEF8018681C7
:203EA000807F61F3CE01992710922E0488329105E8F58E31910508F03FC0049760F182E085
:203EC00080932E0439C0C03EE2E5DE0790F4C03CF2E5DF0798F6C03622E5D20708F4A3CEEC
:203EE000C03A32E5D30750F2C43B82E5D80731F29ACECE0187579C47029708F094CEBECFB5
:203F0000F8018681807F71F68D2F8F71823159F028F4823041F00E94140EB0CF843109F48F
:203F2000ADCF8631C1F710922E04F5CF8D32910531F228F48A9779F70E94C20D9FCF8C343A
:203F40009105D1F38D329240B9F3E5CF26E241EE61EEC8010E943718C8CD27E245EE65EEB2
:203F6000F8CF26E241EE60EEF4CF27E245EE64EEF0CF26E241EE62EEECCF27E245EE66EE13
:203F8000E8CF28E241E0EBCFF8018581882309F46EC310922505CE019057839708F055C301
:203FA00084E090E00E9419329093BC048093BB04FE01E150F047E232F10520F4EB57FD4C7B
:203FC0000C94CA318091BB0481608093BB0495C08091BC0488608093BC048FC08091BB04C3
:203FE0008260F3CF8091BB048460EFCF8091BB048860EBCF8091BC048160EDCF8091BC04FA
:204000008260E9CF8091BB048061DFCF8091BB048062DBCF8091BB048064D7CF0E945E13DE
:204020008091BB048068D1CF8091BB048C60CDCF8091BC048360CFCF8091BB048E7FC5CF0D
:204040008091BC04877FC7CF8091BB048D7FBDCF8091BB048B7FB9CF8091BB04877FB5CFCF
:204060008091BC048E7FB7CF8091BC048D7FB3CF8091BB048F7EA9CF8091BB048F7DA5CFD8
:204080008091BB048F7BA1CF0E945E138091BB048F779BCF8091BB04837F97CF8091BC047A
:2040A0008C7F99CF8091BB0482FB992790F921E0922790FB82F990FB83F987CF8091BC0409
:2040C000982F909591708E7F892B90FB81F983CF9091BB04892F8F7B96FF806476CF0E94D9
:2040E0005E139091BB04892F97FB87F980586DCF61E08EE090E00E942F326091BB047091BE
:20410000BC0484E090E00E944D320E945E13EDCC60E0EFCF9091BB04892F8F7E94FF806107
:2041200054CF9091BB04892F8E7F90FF81604DCF9091BC04892F877F93FF88604CCF85E38F
:2041400093C285E39DC20E945E13FFEF24E33CE0F15020403040E1F700C000000E94EC06E2
:204160006FEF7FEF90E080E00E944D320E9484168091BC0482FB882780F991E089270E940D
:20418000740FF80187819085009709F43FC00E94330AD82FC92FF801B580E680E2943FE0EC
:2041A000E3228091F602877001F1DB2CBB20F1F0892F807F803461F080E28D0F8830A8F03B
:2041C000892F807E803221F4D23078F0EE2069F08091BC0482FF09C082E00E94530C809102
:2041E000F6028770DD24D3948111D12CCC2EC2942FE0C222FBE0FC1508F47FC0EC2DF0E086
:20420000E955FD4C0C94CA3180E0B9CF8581C081D181882369F0CE010E94920BF82E682F2C
:20422000CE010E94060CBE018F2D0E94140AAFCFCE010E94D30BF82EF6CF2C2F2F70F22EEE
:20424000C07F19F0F29490EFF922BB20B9F0FF2069F080E28D0F883010F0D11109C0809188
:204260002804F82AF09228040E94C20D8D2F43C080912E04F82AF0922E04F6CF8D2F0E94D6
:204280007E17FF20D1F180E28D0F883010F0D11104C08F2D0E94570B06C0F09480912E04FF
:2042A000F822F0922E040E94C20D27C03C2F3F70F32EC07FC03219F0F29480EFF822DD2354
:2042C00051F0D13009F472C0BB2009F47EC0EE2009F441C0CBCF8091BC0482FD38C0BB208E
:2042E00081F1FF2039F080912804F82AF09228040E94C20D80E00E94B1172C2D2850330BAD
:204300002430310510F40E94CE07DD20A9F08091F60280FD11C0F8011582869586958695CA
:204320000E946A0CC8010E94DE1C8091F6028695869586950E94410C60E0C8010E94CD0C33
:20434000E3CB80E00E947E17FF20B9F2A2CFBB2099F0E11004C08F2D0E94290ECECF81E031
:20436000E812CBCF809170039F2D9823F91629F2F82AF0927003C1CFE110BFCF8F2D0E94F0
:20438000220E909170038F2D892329F08F2D8095892380937003809171039F2D982309F4CC
:2043A000ACCFF094F822F0927103A7CFBB2029F095E09E1508F4A1CFCECFE4E0EE1508F490
:2043C0009CCF8F2D0E94220E98CFEE20D1F3D93369F4FFEF27EE33E0F15020403040E1F743
:2043E00000C000008D2F0E947E1787CF8FE39CE90197F1F7F5CF8C2F86958695837069F03C
:20440000813009F07ACF8D2F9C2F9370B11002C080E090E00E94840770CF8D2F9C2F9370D6
:20442000B11002C080E090E00E94A90766CF6B2D8D2F0E949A1661CF8C2F837009F03FC026
:20444000B1105BCF4D2F429546954770440F440F2D2F2F7030E0042E02C0220F331F0A94C6
:20446000E2F790E080E0D4FF09C08FE090E002C0880F991F4A95E2F780959095C695C6955F
:20448000C370C23099F078F440918F0350919003C13039F0822B932B842395230E947A0C1F
:2044A0002CCF242B352B822B932BF8CF822B932B20918F033091900382279327EFCF8695E2
:2044C000BB2011F08C2F8170882309F416CF4D2F429546954770440F440F2D2F2F7030E031
:2044E000042E02C0220F331F0A94E2F790E080E0D4FF09C08FE090E002C0880F991F4A9593
:20450000E2F780959095C695C695C370C23099F078F44091F2035091F303C13039F0822B54
:20452000932B842395230E943C0CE7CE242B352B822B932BF8CF822B932B2091F20330910C
:20454000F30382279327EFCFCF70BB2029F08C2F0E946A0C8D2F00CF8D2F0E94220E8C2F6A
:204560000E94410CCACED23F71F160F4D03FB9F0D13F81F0BB2009F454C0E11077CE8C2FD7
:204580008F7125C0D33F31F1D43FA1F79091BC0492FD2EC08C2F8F71BB2011F318C0BB20AC
:2045A00069F094E09E1508F4A8CECF7181E090E002C0880F991FCA95E2F7BFCFE5E0EE1559
:2045C00008F49BCEF2CF8C2F8F71B110C9CF0E946A0C93CE90E080E0BB2009F4A4CFCF71CD
:2045E00081E090E002C0880F991FCA95E2F79BCFBB2061F08C2F8F7192FFE9CFF8E08F9F01
:204600009001112423602093F602E1CF81E00E94530C21E02E1508F070CE82E00E94530CB7
:204620006CCEEE2079F0D93341F43FEF87EE93E0315080409040E1F7D3CEEFE3FCE9319769
:20464000F1F7CECE8C2F8F718BCFC631FCE7DF07D1F4809128048A7A91E009F490E09093FA
:20466000CC0281116CCD89E20E9450076ECAC631DC4709F086CD8091CC02811162CD89E294
:204680000E94250762CAC3303CE7D30709F468CD50F4C1159CE7D90709F455CDC130DC474E
:2046A00009F464CD6ECDCB35FCE7DF0709F4ACCDCC352CE7D20709F45BCDCA35DC4709F025
:2046C00060CD81E05CCDCF93DF938091F302807F09F04DC08091F202882309F448C0E0911E
:2046E00022055091D904C091EE02D091ED026091EF027091F00249E05E17C9F18E2F90E0EA
:20470000E49FF0011124E652FB4F2481222391F1489FF001499FF00D1124DF01A652BB4F2E
:2047200011962C9111972C1325C02C912D1322C015962C91159721111DC012962D913C9114
:20474000261B370B283C3105A8F48091F3028F7080618093F302E052FB4F80818F70806155
:2047600080838DEE92E00E94DE1C0E94880BDF91CF910895FC013196E770BECFA8E1B0E04A
:20478000E4ECF3E20C9438318C0186E0F801DE01539601900D928A95E1F7F8018481E5802D
:2047A0009DEEA92E92E0B92E9091F102911128C0882319F1EE20F1F0C8010E947F0CF82EE0
:2047C0008823C1F089E0F801D50101900D928A95E1F78091F102813031F48091ED02909123
:2047E000EE020E94C60B0E9463238F2D6896ECE00C945431C8010E94DE1CFF24F394F5CFB0
:20480000D080C18082809380F090F2022091EF023091F002A401421B530BFF2009F40DC1DF
:20482000483C510508F0B6C08823F9F29091EE028091F302282F207F09F05FC0C9121DC0BD
:204840009091ED02D91219C04091F4025091F502278130854217530781F4E11048C08F7068
:2048600080618093F3028DEE92E00E94DE1C8091F302F8018683F12CB8CFE11038C06C2D98
:204880008D2D0E9470056C2D8D2D0E947005E82E8111F1CFDB8ACC8A8B899C890E94C60B0E
:2048A000292F22952F70243058F49F70223088F0992399F0F8019681907F79F4FE2C95CF72
:2048C0002A5F2F70223068F0C8010E94DE1CEF2CF5CF992311F0882389F3805E883070F3E5
:2048E000F3CF803F58F3815F833070F7E7CF8091F30281608093F302BECFC9121CC09091E8
:20490000ED02D91218C04091F4025091F502278130854217530779F4E1100DC08683C80139
:204920000E94DE1C89E0F801ADEEB2E001900D928A95E1F75ACFC8010E947F0C882309F45E
:2049400059CFEE2009F456CF8091F3028032B8F02091ED023091EE023B872A879D868C86A6
:204960009091F1029E871F86888B8091F4029091F5029A8B898BCE010A960E94DE1C89E07A
:20498000F801ADEEB2E001900D928A95E1F70E94632333CF9091F302292F207F51F48DEED3
:2049A00092E00E94DE1C89E0F50111928A95E9F762CF882309F419CF8091EE028C1119C0B0
:2049C0008091ED02D81215C04091F4025091F502278130854217530761F4E1100AC0968340
:2049E000C8010E94DE1C89E0F50111928A95E9F7FCCEC8010E947F0C882309F4FBCEEE2012
:204A000009F4F8CE8091F302803208F4B8CF2091ED023091EE023A8329839C828B82909192
:204A2000F1029D831E828F838091F4029091F50299878887CE010196A0CF483C510598F626
:204A4000882309F4DACEFE2CEE2009F4D3CE8091EE028C1120C08091ED02D8121CC020913B
:204A6000F4023091F502878190852817390799F49091F30290FD56CF907F09F453CF809158
:204A8000F3028683903F09F44ACF982F907F905F8F70892B43CFC8010E947F0C81116FCFE3
:204AA0008091F30281608093F302C8010E94DE1C9CCEA2E1B0E0EFE5F5E20C9440310A87D8
:204AC0001B872C873D874E875F87688B798B8A8BCE010A960E94BE2381110CC089E0FE013E
:204AE0003A96DE01119601900D928A95E1F78E8581110BC019E0809122059091D9048913FE
:204B000031C06296E4E00C945C312091D90430E0C90101968770992740912205481719068F
:204B200099F099E0929FD001939FB00D1124A652BB4FFE01319601900D929A95E1F780933B
:204B4000D9040E94880BD6CF0E945E131092D9041092220589E0EDEEF2E0DF011D928A957F
:204B6000E9F7C8CF819FC001112486529B4F0E94BE23882331F28091220590E0019687705F
:204B8000992780932205B7CFB0E0A0E0EAECF5E20C943B3180913004882369F0C0912F04FF
:204BA000C12C8DE0D82E80913004C81748F01092300410922F04CDB7DEB7E9E00C94573184
:204BC000BB24B394BC0EB0922F04EC2EF12CCD9DE0011124CF5CDB4F8C81882361F18F814A
:204BE0009885892B21F489859A85019659F4088119812A813B814C815D816E817F8188858D
:204C00000E945925DE9CF001DF9CF00D1124EF5CFB4F148210922E04C1100DC0CE010E944E
:204C20007F0C811108C08FE39CE90197F1F700C00000CC24C394CB2DB6CF1092A4041092A8
:204C4000A304109225028091A2048093A1040E9476080E94C4250895B0E0A0E0E2E3F6E280
:204C60000C943231C091A104E7E0FE2E01E010E0FDE02F2EEE24E3948091A2048C1309C095
:204C80000E94C4250E947608CDB7DEB7E2E10C944E31D0E0FE01EE0FFF1FE756FB4F80811C
:204CA0009181F89EF001F99EF00D1124E358FE4F248121115AC030903004A1E3B4E030E0FD
:204CC00020E0412C5F01231508F04DC01B966D907C901C97F501808091804FEF5FEF512C4D
:204CE000C52CD12CF601EE0FFF1FE80DF91D659174916616770609F4A601672B11F0539497
:204D0000EFCF4F3F5407B9F1B80102C0660F771F4A95E2F7462AA801052C02C0440F551F31
:204D20000A94E2F7415051094416150609F5229EF001239EF00D1124EF5CFB4FF89ED001FE
:204D4000F99EB00D1124A358BE4F12962D913C9113973087278374E07483108211829287FB
:204D600081871596EC920E9448082196C37084CF14961C9214972F5F3F4F1D96A4CFAEE1FF
:204D8000B0E0E5ECF6E20C9432314B8B5C8B6D8B7E8B8F8B988F911110922E04188A198A1D
:204DA0001A8A86E0FE017396DE011A9601900D928A95E1F78E85882389F061E0CE010A9644
:204DC0000E94CD0C6C018F8520E5C2162CE7D20689F4882329F181E0809325020A851B8503
:204DE0002C853D854E855F85688979898A890E945925C8C031E5C3163CE7D30629F4882328
:204E000079F00E941D26EACF42E5C4164CE7D40639F4882329F0809125028111F2CFDBCF57
:204E2000FDE7EF2EF1E0FF2E512CB12CA12C88248394912CB7E04B2ECE0101969A8F898F15
:204E400033243394F7014081518166246A94762C60E0262F30E0F901EE0FFF1FE40FF51FBE
:204E600085919491C816D90609F43901892B11F06F5FEFCF10E0FFEF6F167F0609F443C0DA
:204E8000F701448110912502812F411180E0182F1170F701258086819F85992309F4F2C030
:204EA000112309F4EFC0211014C09401062C01C0220F0A94EAF7822B868380912C049091BD
:204EC0002D04C29730F422E330E030932D0420932C04C40102C0880F991F6A95E2F70197F2
:204EE000F70126812817190671F48091A3049091A404009709F44AC00E941C13C39708F40A
:204F000045C0F7013482512AFFEFAF1ABF0A27E0E20EF11C38E1A316B10409F093CF8F85E9
:204F2000882309F40EC1552009F40BC10E942B139093A4048093A30480913004883010F555
:204F400091E0980F9093300499E0FE013A96DE01119601900D929A95E1F74DE0849FC001CC
:204F600011248F5C9B4F29E0FE013196DC0101900D922A95E1F72FEF3FEFFC01328721870A
:204F8000D486C3866E96E2E10C944E318091A1046091A204982FF0E0E0E0861314C0909354
:204FA000A104EE16FF0609F4AECF90E0FC01EE0FFF1FE756FB4FB182A0820196837099271B
:204FC0008093A204A0CF682E712CF301EE0FFF1FE756FB4F20813181429ED001439EB00D3E
:204FE0001124A358BE4F2D913C9111973E8F2D8F00E070E0212CE22DF0E0EE0FFF1F2D8D87
:205000003E8DE20FF31F2591349121153105E1F0F7010190F081E02DFC8FEB8F70E005C0E9
:205020002417350709F4012F7F5FE72FF0E0EE0FFF1F4B8D5C8DE40FF51F45915491411514
:20504000510571F72394D7CF0023C9F0F701721508F0FD013482EE16FF0621F49093A10448
:20506000102F51CF981305C0AE17BF0711F49F5F937093012F5F3F4F822F83708ECFF0E04F
:20508000E0E0F7CF90E021101FC0940102C0220F331F6A95E2F7215031092817390731F409
:2050A000442309F44CC0C5010E944808C401062C01C0880F0A94EAF7982F9095F70186810F
:2050C00089238683122D1FCFAC01062C02C0559547950A94E2F7BA01617077279C012150D8
:2050E000310982239323892B31F5672B21F1F70182819381892BE1F0E98DFA8D242D119218
:205100002A95E9F70E942B13282F8B839C8334E03D83F70182819381782F88879987098149
:205120001A813C8144E05E816F81892F0E945925F7011582BBCFF42FF1702F2EB7CF212E7D
:20514000B5CF9091A1048091A204981729F00E942C26511017CF42CE0E94C4251092A40466
:205160001092A3040E947608F4CFA6E0B0E0EBEBF8E20C9440310E942B138C0180911F038C
:20518000909120038017910781F019821A820E942B13682F49815A81792F80E090E00E94BE
:2051A000BF261093200300931F032696E4E00C945C311F921FB61F9211248F939F93AF93E0
:2051C000BF938091BD04811113C08091BE049091BF04A091C004B091C1044196A11DB11D31
:2051E0008093BE049093BF04A093C004B093C104BF91AF919F918F911F901FBE1F9018952D
:20520000CDB7DEB72F970FB6F894DEBF0FBECDBF85B7806885BF85B7806885BF84B7877F57
:2052200084BF0FB6F894A89580916000886180936000109260000FBE80E890E00FB6F894D8
:2052400080936100909361000FBE8CEE98E09093A1028093A0020E948F050E9430068091FD
:20526000E20084608093E20078948091CF048823A1F01091E9001F709091EC00892F817078
:2052800090FD80E8182B1092E9008091E80083FD0E948F131F701093E90082E084BD93E05D
:2052A00095BD9AEF97BD80936E0010927F031092800310928103109282038091D8008061DE
:2052C0008093D8002AE12A95F1F700C08091D900182F117080FD04C00E948F051092CF04D3
:2052E0001093B2041093B3041093680111110E94BC2FE0E2F4E088E0DF011D928A95E9F7B4
:205300008091680191E089278093E603809168019093E9038091680180916801811106C021
:2053200084EF80937B0185EF80937C0160E080E00E94A40861E080E00E94A408EFE8F1E0E2
:205340003197F1F700C0000010E08091E903181708F4CBC0809168018091680195E081113F
:2053600090E090938E0385E0891B80938D030DE712E072E8E72E72E0F72ED8018D918D010C
:205380008F3F11F00E94F208E016F106B1F702E812E068E8E62E62E0F62EF80181918F01CC
:2053A0008F3F11F00E94F208E016F106B1F78AE0E1E9F3E0DF01282F1D922A95E9F7E3E896
:2053C000F3E0DF011D928A95E9F790E080E00E941932853E9E4F09F461C065EE7EEF90E0B1
:2053E00080E00E944D3260E082E090E00E942F3281E090E09093900380938F0361E083E047
:2054000090E00E942F3260E074E184E090E00E944D3260E086E090E00E942F3260E087E0CF
:2054200090E00E942F3240E050E0BA0188E090E00E94413260E083E290E00E942F3260E0A9
:205440008CE090E00E942F3260E08DE090E00E942F3219821A821B821C821D821E821F82FB
:20546000188648E050E067E170E0CE0101960E941F3240E050E0BA018FE190E00E94413245
:2054800040E050E0BA018FE090E00E94413240E050E0BA0183E190E00E94413282E090E047
:2054A0000E94113280939B0384E090E00E9419329093BC048093BB040E94E11AEFEFF6E788
:2054C00021E0E150F0402040E1F700C000000E94E11A8091910380FF1AC06FEF7FEF90E09B
:2054E00080E00E944D320E94EC0660E0812F0E948808082F61E0812F0E948808E12FF0E03B
:20550000E951FC4F880F802B80831F5F1ECF83E090E00E94113290E00E947A0C83E0809390
:20552000140480E2809328070E945A2E6BE070E083E993E00E94240F8823E9F18091140488
:2055400065E070E081FDA2C08EE893E00E94240F882389F16DE070E08CE793E00E94240F9B
:20556000882349F10E94190760547B428E4F9F4F609318047093190480931A0490931B04A6
:20558000E8E2F5E080E092E0DF019C011D9221503040E1F7F0932705E09326058FEF9FEF5C
:2055A000909317048093160481E080931F0480931C04109215048091B204811102C00E943E
:2055C000BF2F89E691E09093B8048093B7044BE9242E43E0342E54E6852E912CA12CB12CF1
:2055E0008091CF0400E112E1853009F48AC00E94E11A0CE913E031E9E32E33E0F32E26EA03
:2056000033E0D701F80191918D912E173F0709F482C09817C1F3D090B204712CF70161909D
:205620007F01D8018D918D01861539F1C82EC624512C442443948C2D8421B9F0DD20A9F067
:2056400059867A860E942B139C878B87B1E0BD8791E0862D842109F490E09E8749855A8579
:205660006B857C858D850E94BF265394440CE6E05E12E1CFF801319760827394FAE07F126E
:20568000CDCF0E94090921E02F874AC089E893E05DCF8091CF04843031F10E94310F1092AB
:2056A000BD0488E190E0A0E40FB6F894A895809360000FBEA093600083B7817F846083BF0B
:2056C00083B7816083BF7894889583B78E7F83BF0FB6F894A8958091600088618093600060
:2056E000109260000FBE8091CE04882351F00E94E11AE1E9F3E08191811166C22E163F067D
:20570000D1F78091CF04853009F4C3CF0E945E130E94CE076CCF98137ECF0E94B5281F86B8
:205720008091B204811111C0612C8091EA03882351F01092EA0380912204809323048091B7
:20574000200480932104712C41C180912502882301F18091A3049091A4040097D1F00E94FE
:205760001C1320912C0430912D042817390788F49091A1048091A204981709F4D2C00E94CF
:205780002C2610922D0410922C041092A4041092A3044090B2035090B303052C000C6608B9
:2057A000770810917301212F30E0E2EBF3E081E090E03296281739070CF0BCC06091AE0323
:2057C0007091AF038091B0039091B1030E94FD066B017C0139ECC316D104E104F10414F13D
:2057E0008091AD0390E0019669E170E00E9475318093AD03880F991FFC01EE54FC4F1182D0
:205800001082812F183108F087E18F5F809373010E9419076093AE037093AF038093B00347
:205820009093B10382E048165104610471040CF48DC0A0E6BAEEA30192010E94D0312B0121
:205840003C0198EC199F90011124032E000C440B550B2C0D3D1D4E1D5F1DA5E0B0E00E94EC
:20586000D0319B01AC01C301B2010E94893129013A01A1EF4A165104610471042CF080EFFC
:20588000482E512C612C712C6091A9037091AA038091AB039091AC030E94FD066B017C0183
:2058A000B5E6CB16D104E104F10484F00E9419076093A9037093AA038093AB039093AC03A5
:2058C0008091A8038093A7034092A6031091A703A091A603A11BBB0BA70196010E94DB3140
:2058E000A50194010E94AB31120F1093A80380912B04882369F00E942B13209129043091BD
:205900002A04821B930B8F3F9F4710F40E94140E8091B204882309F407CF0E949618682E77
:2059200004CF0E94C4251092A4041092A3040E9476082FCF40815181052E000C660B770B93
:20594000440E551E661E771E019633CF412C512C32019ACF61E0872D0E948808182F60E09C
:20596000872D0E948808E12FEE0F8E2B072D10E0D801A951BC4FEC919E2F9370891729F172
:20598000EE0FEE0FE82BEC938091E603870DEF70F0E0E857FD4F0C511C4FE080D8019C9105
:2059A000E90EEC92B3E060E0BE1524F0EDEFEE161CF461E00E94C7088E2DEE0C990B64E079
:2059C00070E00E947531D8018C9373948091E903781608F4BFCF8091B204882319F00E94FE
:2059E0009618682A662039F00E9409090E94D9180E944C0F05C00E94D918BF85B111F8CF4F
:205A000086E0ECEAF4E0DE01119601900D928A95E1F76090AD040091AE04F090AF04E09042
:205A2000B0041091B1041092AE041092AF041092B0041092B104802F8F2909F445C080918C
:205A4000AA049091AB040E941C139C019091A504992309F4D8C025313105B0F19F3F19F02B
:205A60009F5F9093A504002359F00E9404089FEF10160CF491E0899F802D11248093AE044E
:205A8000FF2059F00E94040891E01F140CF09FEF899F802D11248093AF048091AE04882384
:205AA00099F07090AF04772079F00E942408882309F482C08093AE04872D0E942408882300
:205AC00009F47CC08093AF04812F8E2909F443C08091A8049091A9040E941C139C01909146
:205AE000A604992309F48AC021353105A0F19F3F19F09F5F9093A604EE2059F00E94E20748
:205B00009FEF1E140CF491E0899F802D11248093B004112359F00E94E20791E011160CF0E7
:205B20009FEF899F802D11248093B1048091B004882389F0E090B104EE2069F00E942408C2
:205B40008823F1F18093B0048E2D0E9424088823C9F18093B1048091AD04681216C0809118
:205B6000AE04882311F0081310C02091AF04222311F02F110AC09091B104992311F0191369
:205B800004C03091B0043323A9F10E94371386E0FE013196ACEAB4E001900D928A95E1F773
:205BA0000E94CE079091EB03891709F419CD8093EB030E94190714CD81E07CCF81E082CFDA
:205BC00081E0C0CF81E0C5CF09BD19BD09B400FEFDCF8091D8008F7D8093D8008091E000EC
:205BE00082608093E0008091E00081FDFCCF0E945E1387CD822B892B51F2C7CF2B30310564
:205C000008F077CFA8CF2B30310508F029CF5CCFEF92FF920F931F93CF93DF93182FEB01B6
:205C20001092BC0084EA8093BC000E942B137C018091BC0087FF27C08091B900887F8830A9
:205C400029F08091B900887F803189F51093BB0084E88093BC000E942B138C018091BC0058
:205C600087FF1EC02091B900287F90E080E0283191F081E090E0203411F490E080E09195E5
:205C80008195910908C0C7010E941C13C817D90778F68EEF9FEFCDB7DEB7E6E00C945A31B1
:205CA000C8010E941C13C817D907C0F6F2CF8FEF9FEFF1CF1092B9008CE08093B800089519
:205CC0000F931F93CF93DF93EB018093BB0084E88093BC000E942B138C018091BC0087FFE7
:205CE00011C02091B900287F81E090E0283211F490E080E0919581959109DF91CF911F916C
:205D00000F910895CF3FDC0741F3C8010E941C13C817D90710F78EEF9FEFEFCFB0E0A0E0E8
:205D2000E4E9FEE20C943731782E5B016A0189010E942B134C01C1E0D0E00431110558F0A6
:205D4000C5E0D0E00F3F100731F0C80164E170E00E941E31EB01BE01872D0E94082E7C0165
:205D600097FF09C00F3F1007B1F3C4010E941C130817190780F7E501CA0CDB1CCC15DD05F9
:205D800011F0F7FE09C084E98093BC00C701CDB7DEB7EDE00C945331B80189910E94602E33
:205DA0007C01ECCFB0E0A0E0E8EDFEE20C943731782E5B016A0189010E942B134C01C1E019
:205DC000D0E00431110558F0C5E0D0E00F3F100731F0C80164E170E00E941E31EB01BE01AB
:205DE000872D0E94082E7C0197FF09C00F3F1007B1F3C4010E941C130817190780F7E50100
:205E0000CA0CDB1CCC15DD0511F0F7FE09C084E98093BC00C701CDB7DEB7EDE00C94533125
:205E2000FE018491B8010E94602E7C012196EACFB0E0A0E0EEE1FFE20C943631682E762E77
:205E40005A0169010E942B134C01C1E0D0E00431110558F0C5E0D0E00F3F100731F0C801C8
:205E600064E170E00E941E31EB01BE01862D0E94082E7C0197FF1DC00F3F1007B1F3C401A8
:205E80000E941C130817190780F784E98093BC00C701CDB7DEB7EEE00C945231B80189919A
:205EA0000E94602E7C01CC16DD0679F3F7FEF6CFECCFB801872D0E94602E7C01E501CA0CB9
:205EC000DB1CF1CF8EE14A9B02C08150E1F74A9BFECF08955A9880E28A95F1F75A9A089511
:205EE000FC013BE03A95F1F798E020E080E031E040E14A95F1F7880F4A9B02C08160232799
:205F000042E04A95F1F7000040E14A95F1F7915079F790E19A95F1F799B132E03A95F1F7C4
:205F2000000040E14A95F1F792FB992790F992272081920F90830895A1E0B0E0E2EAFFE23A
:205F40000C943E3119828C017C01E60EF11C0E151F0541F481E09981911180E02196E6E016
:205F60000C945A310E94622FCE0101960E94702FF80181938F01EBCF529A5A9A089552985E
:205F80005A9AEA9AE9E6F0E080818F7C808308956150770B91E001C0990F6A95EAF720E051
:205FA00031E0911108C0222391F05A9A80E28A95F1F75A980895492F482339F05A9A23276A
:205FC00040E24A95F1F79695ECCF5A98F9CF5A98EDCFFF920F931F93CF93DF93EC018C0157
:205FE000060F111DC017D10729F4CDB7DEB7E5E00C945B31F9900E946A2F68E08F2D0E941E
:20600000C82FF0CF1F920F920FB60F9211240F931F932F933F934F935F936F937F938F93EB
:206020009F93AF93BF93EF93FF93CF93DF930F92CDB7DEB719820E94622FCE0101960E9422
:20604000702F082F069506950695282F22952570902F9570290F922F937026952695920F1F
:20606000982797708981982B09F05CC00E3008F059C080E18A95F1F75A9A529A82E08A9560
:20608000F1F700C05A9888E0089F80011124D801A050BF4F1696ED91FC9117973097A9F005
:2060A00060917B0270917C0214962D913C911597260F371F11968D919C911297680F791FDD
:2060C00013964C9113978C910995F801E050FF4F6381662351F020917B0230917C0284813E
:2060E0009581820F931F0E94E92F0E946A2F80E18A95F1F75A9852985A9A80E18A95F1F7B2
:20610000F801E050FF4F6081662351F020917B0230917C0281819281820F931F0E949C2F2B
:206120000E94622F0F90DF91CF91FF91EF91BF91AF919F918F917F916F915F914F913F911D
:206140002F911F910F910F900FBE0F901F9018950F931F93CF93DF93EC010E970CF04CC006
:20616000F894529A5A9885E08A95F1F700009C2F969595708C2F8570980F892F8370969521
:20618000969523E0CC0FDD1F2A95E1F7980F8E01092B0E946A2F00C068E0802F0E94C82F6E
:2061A00080E18A95F1F752985A9A4A9B1EC087E090E04A991CC0FE01E050FF4F6381662356
:2061C000F9F020917B0230917C0284819581820F931F0E949C2F811113C0529A5A9A78944D
:2061E000DF91CF911F910F91089500C0DECF019729F4529A5A9A789480E0F2CF00C0D9CF4B
:206200000E94622F80E28A95F1F75A98529A80E18A95F1F7C050DF4F6881662351F02091FA
:206220007B0230917C0289819A81820F931F0E94E92F0E946A2F789481E0D2CFAA1BBB1B9C
:2062400051E107C0AA1FBB1FA617B70710F0A61BB70B881F991F5A95A9F780959095BC01BF
:20626000CD0108952F923F924F925F926F927F928F929F92AF92BF92CF92DF92EF92FF9275
:206280000F931F93CF93DF93CDB7DEB7CA1BDB0B0FB6F894DEBF0FBECDBF09942A8839889B
:2062A00048885F846E847D848C849B84AA84B984C884DF80EE80FD800C811B81AA81B9817A
:2062C000CE0FD11D0FB6F894DEBF0FBECDBFED010895991B79E004C0991F961708F0961B42
:2062E000881F7A95C9F78095089597FB072E16F4009407D077FD09D00E941E3107FC05D024
:206300003EF4909581959F4F0895709561957F4F0895A1E21A2EAA1BBB1BFD010DC0AA1F25
:20632000BB1FEE1FFF1FA217B307E407F50720F0A21BB30BE40BF50B661F771F881F991F0A
:206340001A9469F760957095809590959B01AC01BD01CF010895052E97FB1EF400940E947A
:20636000C23157FD07D00E94893107FC03D04EF40C94C23150954095309521953F4F4F4F97
:206380005F4F089590958095709561957F4F8F4F9F4F0895EE0FFF1F0590F491E02D099467
:2063A0000E94E331A59F900DB49F900DA49F800D911D11240895B7FF0C94D0310E94D0310C
:2063C000821B930B0895A29FB001B39FC001A39F700D811D1124911DB29F700D811D1124FF
:2063E000911D0895FB01DC0102C005900D9241505040D8F70895FB01DC0104C08D910190AA
:20640000801921F441505040C8F7881B990B0895FB01DC0102C001900D9241505040D8F74F
:206420000895F999FECF92BD81BDF89A992780B50895A8E1B0E042E050E00C945532DC0140
:20644000A40FB51F4150504048F0CB01840F951F2E910E94303241505040D0F70895262FAC
:20646000F999FECF92BD81BDF89A019700B4021639F01FBA20BD0FB6F894FA9AF99A0FBE16
:2064800008950396272F0E9430320E942F32252F0E943032242F0C9430320196272F0E942D
:2064A00030320C942F32DC01CB01FC01F999FECF06C0F2BDE1BDF89A319600B40D92415024
:2064C0005040B8F70895F894FFCF6E1496142E1696142E16C914EA142E16E715F415D01D17
:2064E000241E3F1E4C1E591E701E791E8D1EA41EBB1EE61EFD1E181F201F0A1FB11FB51F4F
:20650000A61FAD1FB91FBD1FC11F1C2091202420EE1FF21F2820F61F2C20382002208A203A
:2065200006203C200A20402068200E2044206F2014204A205220FA1F3020FE1F3420182084
:206540004E205E2078208820E81F202098201D211D2156215621FB2117227D217D211C22D7
:20656000A422B322B322000000010000000000000005010000000506000000000000000099
:2065800000010B000000000000080C000000000000000000EE0804140000000000000218B3
:2065A000000000000000021A000000000000011C000000000000041D00000000000001215F
:2065C000000000000000012200000000000001E9067B0D740D6D0D660D010021007F2200EF
:2065E00003F5F41E01E1000000001801E3000000001201E0000000000C01E20000000006CB
:2066000001E5000000000001E700000000FA00E400000000F400E600000000EE00E1000025
:206620000000E800E300000000E200E000000000DC00E200000000D600E500000000D00084
:20664000E700000000CA00E400000000C400E600000000BE002800000000B8002800000035
:206660000000000000000000000000000000000000000000000000000000000000B2002A3E
:2066800000000000AC002A0000000001017177657274006E6176006E756D70640073796D2D
:2066A000620066756E637400818283E200E900EA00B500B600B700CD008301CC008A0192C1
:2066C0000194012102230224022502260227022A02B300B4006F0070009F01CB019F02A01F
:2066E000022B036697C63435F6F73133323600FF0100010000FFFF0000010001FF0000087D
:20670000101818100800FFFFFFFFFFFFFFFFFFFFFFFFFFFFFFFFFFFFFFFFFFFFFFFFFFFF3B
:20672000FFFFFFFFFFFFFFFFFFFFFFFFFFFFFFFFFFFFFFFFFFFFFFFFFFFFFFFFFFFFFFFF79
:20674000FFFFFFFFFFFFFFFFFFFFFFFFFFFFFFFFFFFFFFFFFFFFFFFFFFFFFFFFFFFFFFFF59
:20676000FFFFFFFFFFFFFFFFFFFFFFFFFFFFFFFFFFFFFFFFFFFFFFFFFFFFFFFFFFFFFFFF39
:20678000FFFFFFFFFFFFFFFFFFFFFFFFFFFFFFFFFFFFFFFFFFFFFFFFFFFFFFFFFFFFFFFF19
:2070000055C000006EC000006CC000006AC0000068C0000066C0000064C0000062C0000043
:2070200060C000005EC00000F2C400005AC0000058C0000056C0000054C0000052C00000EE
:2070400050C0000078C000004CC000004AC0000048C0000046C0000044C0000042C00000BE
:2070600040C000003EC000003CC000003AC0000038C0000036C0000034C0000032C0000048
:2070800030C000002EC000002CC000002AC0000028C0000026C0000024C0000022C00000A8
:2070A00020C000001EC000001CC0000011241FBECFEFDAE0DEBFCDBF11E0A0E0B1E0E2E3BC
:2070C000FFE702C005900D92A83AB107D9F711E0A8EAB1E001C01D92AE3BB107E1F78FD30B
:2070E00026C78ECFF89410926F0010928100109285001092840081E085BF15BE47985D98ED
:2071000028980C94000008952091B2013091B3012F5F3F4F3093B3012093B201932F37FFA8
:2071200003C08EEF831B982F990F921710F447980895479A08951F920F920FB60F9211246E
:207140002F938F939F93EF93FF9310928500109284008091A8019091A901009741F00197D3
:207160009093A9018093A801892B09F45D988091AA019091AB01009741F001979093AB0128
:207180008093AA01892B09F42898E0E0F0E0859194918F5F9F4F49F08091AC019091AD0153
